:0300000002087F74
:0C087F00787FE4F6D8FD758107020800C0
:1008000075B0FFE4F5A0F59075A0FF7580011208A2
:100810005D12085AE4F5A075800312085DAFB0EFD1
:1008200064FE7005759001802CAFB0EF7005759077
:10083000028022AFB0EF64C070057590048016AFDF
:10084000B0EF64F16007AFB0EF64F0700575900829
:0A0850008003E4F59012085A80AE10
:07085A00E4F5807F2C7E0114
:10086100EF4E6019758910758BCD758DF8D28E306C
:0E0871008FFDC28EC28FEF1F70E61E80E32245
:00000001FF
